:0506CA0012050680FB93
:0B06BF00EF1FAC0670011E4C70F6220D
:10064400AC06AD07D3ED9400EC940040147A007B23
:100654006EEB1B70011AEB4A70F7ED1D70E61C80FF
:01066400E3B2
:010665002272
:1005F40011263F065B4F666D7D077F6F777C395E02
:0D06040079710008376D5B3F40064F0666B8
:0602F8008B3F8A408941A2
:1002FE00E4F542ED14F543F542E542C39408507B14
:10030E00E542B40800504D90031CF82828730203F0
:10031E003402033802033C02034002034402034C3E
:10032E0002035402035CD2A4800ED2A48012D2A483
:10033E008016D2A4801AC2A4D2A3D2A28016C2A4BE
:10034E00D2A3C2A2800EC2A4C2A3D2A28006C2A40D
:10035E00C2A3C2A2C3E5429543FFE49400AB3FAAF9
:10036E0040A9418F82F583120268F5807F647E007A
:0B037E001206BFE4F5800542020307F1
:010389002251
:1006110002080000040A00000000030E00000002AE
:10062100110000041300000000021700000419006B
:10063100000000021D0000041F0000000003230051
:020641000000B7
:10066600E4FEC2B600EFC4131313540124FF92B480
:0E067600EF25E0FFD2B600C2B6000EBE08E7C8
:010684002253
:10068500E4FDFFFEC2B600EF25E0FFEE33FED2B675
:0E06950000C2B600A2B7E43342070DBD0CE967
:0106A3002234
:1006A400E4FEFDFCC2B6C2B51206667E06DEFEC2DC
:0A06B400B600D2B600120685D2B5DA
:0106BE002219
:10057E007F941206A48E088F09AC08AD09E412010F
:10058E00AEE4FBFA79A07840120003E4FBFA79801E
:10059E00784512010C8F0D8E0C8D0B8C0AE4FFFE2C
:1005AE007D207C41AB0DAA0CA90BA80A12000312E8
:1005BE0001E78E088F097C007D0A12029574262FA2
:1005CE00F8E64480F50EAE08AF097C007D0A1202F3
:1005DE009574262DF8E6F50F75103E7B007A00799E
:0605EE000E7D060202F87A
:100416007FA41206A48E118F127C037DE81202952A
:1004260074262FF8E6F513AE11AF127C037DE812A1
:100436000295AA04AB057D647C00AF03AE021202EE
:100446009574262FF8E6F5147D647C00AF03AE02A2
:10045600120295AA04AB057D0A7C00AF03AE021218
:10046600029574262FF8E6F5157D0A7C00AF03AEDB
:100476000212029574262DF8E6F5167B007A0079AD
:08048600137D051202F88088C5
:10048E007FD41206A48E178F187C037DE812029576
:10049E0074262FF8E6F519AE17AF187C037DE81217
:1004AE000295AA04AB057D647C00AF03AE02120276
:1004BE009574262FF8E6F51A7D647C00AF03AE0224
:1004CE00120295AA04AB057D0A7C00AF03AE0212A0
:1004DE00029574262FF8E6F51B7D0A7C00AF03AE5D
:1004EE000212029574262DF8E6F51C7B007A00792F
:0804FE00197D051202F8808847
:100506007FE41206A48E1D8F1EAC1DAD1EE41201E3
:10051600AEE4FBFA79A07840120003E4FBFA798096
:10052600784512010C8F228E218D208C1FE4FFFE50
:100536007D207C41AB22AA21A920A81F120003120C
:1005460001E78E1D8F1E7C007D0A12029574262FF0
:10055600F8E64480F523AE1DAF1E7C007D0A12022C
:100566009574262DF8E6F52475253E7B007A0079EC
:08057600237D061202F88088C3
:10000300EC4D6011E8497017ED33EC3304600DE4F7
:10001300FCFFFEFD22E933E8330470F802025312B9
:10002300021E58046009E4CC2481500628500902BA
:10003300025D28400302025AC0E0EB4A7044B980D3
:1000430006D0E0FB020249EF4E701CBD8008EBFFB7
:10005300EAFEE9FD80EBE98DF0A4FEE5F00200EC99
:10006300E9CDF9EAFEEBFFEF89F0A4FCE5F0CE89D8
:10007300F0A42EFFE435F0CD89F0A42DFEE435F095
:100083008067EF4E7005BD80D780C3EF8BF0A4ACC3
:10009300F0EE8BF0A42CFCE435F0F8EF8AF0A42CFE
:1000A300E5F038FCE433CB8DF0A42CFCE5F03BF811
:1000B300EE8AF0A42CFCE5F038F8E433CF89F0A401
:1000C3002CFCE5F038CF3400CE89F0A42FFFE5F007
:1000D3003EFEE433C98DF0A42EFEE5F039CD8AF05F
:1000E300A42FFFE5F03EFEE43DFD33D0E0FB5007D7
:1000F3000BBB000F02025DEC2CFCEF33FFEE33FE73
:06010300ED33FD020235A0
:1001090002025DEC5D046005E859047003020253C4
:1001190012021E580460F6EC4860F2EC7004FDFE11
:10012900FF22C860DB2481C85009C39860025006C9
:1001390002025A9850CAF582E9294B4A7005AB82E6
:1001490002024975F0007C1A7880C3EF9BEE9AEDA4
:1001590099400DC3EF9BFFEE9AFEED99FDE842F041
:10016900DC23ACF0D0E0FFD0E0FED0E0FDAB822094
:10017900E7101BEB60BAEC2CFCEF33FFEE33FEED1E
:1001890033FD020235E803F830E705C0F075F000E9
:10019900EF2FFFEE33FEED33FD40B830E7C280AA02
:1001A90075F020800E75F010800575F0087D007ED1
:1001B900007F003392D530D5031202EAEC334010A8
:1001C900EF33FFEE33FEED33FDEC33FCD5F0ED22DA
:0E01D900E5F0247EA2D513CC92E7CDCEFF2216
:1001E700EDD2E7CD33EC3392D524814006E4FFFE10
:1001F700FDFC22FCE4CFCECDCC24E0501174FF806F
:10020700EDC3CC13CCCD13CDCE13CECF13CF04700B
:07021700F030D5DE0202EA1F
:10021E00E9D2E7C933E833F892D5EDD2E7CD33EC26
:07022E0033FC5002B2D5229F
:10023500EC30E7100FBF000C0EBE00080DBD00042A
:100245000BEB6014A2D5EB13FCED92E7FD2274FFD6
:10025500FCFDFEFF22E480F8A2D574FF13FC7D802F
:03026500E480EF43
:0300000002038A6E
:0C038A00787FE4F6D8FD7581430203D1B2
:10026800BB010CE58229F582E5833AF583E022504B
:1002780006E92582F8E622BBFE06E92582F8E22295
:0D028800E58229F582E5833AF583E49322AF
:10029500BC000BBE0029EF8DF084FFADF022E4CC4D
:1002A500F875F008EF2FFFEE33FEEC33FCEE9DEC16
:1002B500984005FCEE9DFE0FD5F0E9E4CEFD22ED5C
:1002C500F8F5F0EE8420D21CFEADF075F008EF2FA6
:1002D500FFED33FD4007985006D5F0F222C398FD97
:0502E5000FD5F0EA2234
:0E02EA00C3E49FFFE49EFEE49DFDE49CFC2225
:100396000206CAE493A3F8E493A34003F68001F2AD
:1003A60008DFF48029E493A3F85407240CC8C33368
:1003B600C4540F4420C8834004F456800146F6DF37
:1003C600E4800B01020408102040809005F4E47ECE
:1003D600019360BCA3FF543F30E509541FFEE4932C
:1003E600A360010ECF54C025E060A840B8E493A3F3
:1003F600FAE493A3F8E493A3C8C582C8CAC583CA1E
:10040600F0A3C8C582C8CAC583CADFE9DEE780BED5
:0106430000B6
:00000001FF
