:050149001200CF80FB55
:0B013E00EF1FAC0670011E4C70F62293
:1000FA00AC06AD07D3ED9400EC940040147A007B73
:10010A006EEB1B70011AEB4A70F7ED1D70E61C804E
:01011A00E301
:01011B0022C1
:10011C000819007C8282827C00000811387C7E3FAA
:10012C003F7E7C3808097FBFDFEFF7FBFDFE01083F
:01013C0000C2
:02008F008F21BF
:10009100E4F522F522E521C4131313540124FF9240
:1000A100B4E52125E0F521C2B67F017E0012013EB3
:1000B100D2B67F017E0012013E0522E522C39408DB
:0D00C10040D3C2B57F017E0012013ED2B5D2
:0100CE00220F
:1000CF00E4F50874092508F8E6F58074112508F899
:1000DF00E6FF12008F7F647E0012013EE4FF1200E4
:0A00EF008F0508E508C3940840D906
:0100F90022E4
:03000000020003F8
:0C000300787FE4F6D8FD75812202004AE7
:10000F00020149E493A3F8E493A34003F68001F2BD
:10001F0008DFF48029E493A3F85407240CC8C333F2
:10002F00C4540F4420C8834004F456800146F6DFC1
:10003F00E4800B010204081020408090011CE47E34
:10004F00019360BCA3FF543F30E509541FFEE493B6
:10005F00A360010ECF54C025E060A840B8E493A37D
:10006F00FAE493A3F8E493A3C8C582C8CAC583CAA8
:10007F00F0A3C8C582C8CAC583CADFE9DEE780BE60
:01013D0000C1
:00000001FF
