:05014F0012008F80FB8F
:0B014400EF1FAC0670011E4C70F6228D
:10010400AC06AD07D3ED9400EC940040147A007B68
:100114006EEB1B70011AEB4A70F7ED1D70E61C8044
:01012400E3F7
:0101250022B7
:1001260011083F065B4F666D7D077F6F777C395EF2
:0D01360079710008196D5B3F40064F0666A9
:10008F00E4F521F521E521B40800504D9000A2F8C8
:10009F002828730200BA0200BE0200C20200C60284
:1000AF0000CA0200D20200DA0200E2D2A4800ED20D
:1000BF00A48012D2A48016D2A4801AC2A4D2A3D232
:1000CF00A28016C2A4D2A3C2A2800EC2A4C2A3D27F
:1000DF00A28006C2A4C2A3C2A274192521F8E6F514
:1000EF00807F647E00120144E4F5800521E521C381
:0400FF009408409190
:0101030022D9
:03000000020003F8
:0C000300787FE4F6D8FD75812102004AE8
:10000F0002014FE493A3F8E493A34003F68001F2B7
:10001F0008DFF48029E493A3F85407240CC8C333F2
:10002F00C4540F4420C8834004F456800146F6DFC1
:10003F00E4800B0102040810204080900126E47E2A
:10004F00019360BCA3FF543F30E509541FFEE493B6
:10005F00A360010ECF54C025E060A840B8E493A37D
:10006F00FAE493A3F8E493A3C8C582C8CAC583CAA8
:10007F00F0A3C8C582C8CAC583CADFE9DEE780BE60
:0101430000BB
:00000001FF
