:10012800E4F521F522E4FF1201958F21E521B401C0
:1001380009AD22E4FF1202BD8027E521B40209E4DB
:10014800FF1202608F228019E521B4030C0522E515
:1001580022B4FF0D7522FF8008E521B40403E4F5FD
:1001680022E52275F06484F523E52275F06484AFF6
:10017800F0EF75F00A84F524EF75F00A8485F02510
:0D0188007B007A0079237D06120003809829
:0B03A400EF1FAC0670011E4C70F6222B
:1002E600AC06AD07D3ED9400EC940040147A007B85
:1002F6006EEB1B70011AEB4A70F7ED1D70E61C8061
:01030600E313
:0103070022D3
:1002BD008F268D2712034B7FA01201E1120308AF89
:1002CD00261201E1120308AF271201E112030812F1
:0902DD0003907F0A7E000202E694
:020260008F26E7
:10026200E4F52712034B7FA01201E1120308AF2627
:100272001201E112030812034B7FA11201E11203E2
:0D02820008E4FF1202228F27120390AF271D
:01028F00224C
:10034B00D2A1D2A07F017E001203A4C2A07F017EA6
:07035B00001203A4C2A1225D
:10039000D2A1C2A07F017E001203A4D2A07F017E61
:0403A000000203A4B0
:10036200C2A1C2A07F017E001203A4D2A17F017E9E
:07037200001203A4C2A12246
:10037900C2A1D2A07F017E001203A4D2A17F017E77
:07038900001203A4C2A1222F
:10030800E4F528D2A17F01FE1203A430A00F05282E
:10031800E528D3946440F41203907F0122C2A17FA0
:0103280000D4
:0103290022B1
:0201E1008F2865
:1001E300E4F529C2A1F529E5285480D394004004FD
:1001F300D2A08002C2A0E52825E0F5287F017E0079
:100203001203A4D2A17F017E001203A4C2A17F0125
:0E0213007E001203A40529E529C3940840C902
:0102210022BA
:020222008F2823
:10022400E4F529F52AF529C2A17F017E001203A471
:10023400D2A1E52A25E0F52A30A002052A7F017E15
:10024400001203A40529E529C3940840DAE52870BF
:0B025400051203798003120362AF2A39
:01025F00227C
:03032A00012B01A3
:10019500EF6003752B01E52B6401702E30B109303A
:1001A500B00630B20320B3227F0A7E001202E6E4D5
:1001B500F52B20B1037F012220B0037F022220B25C
:1001C500037F032220B3127F042230B10C30B00923
:0B01D50030B20630B303752B017F0031
:0101E00022FC
:10032D0011083F065B4F666D7D077F6F777C395EE9
:0D033D0079710008196D5B3F40064F0666A0
:060003008B268A278928E4
:10000900E4F529ED14F52AF529E529C394084003F7
:1000190002009BE529B40800504D90002AF82828D1
:100029007302004202004602004A02004E020052D8
:1000390002005A02006202006AD2A4800ED2A48091
:1000490012D2A48016D2A4801AC2A4D2A3D2A280AA
:1000590016C2A4D2A3C2A2800EC2A4C2A3D2A280F5
:1000690006C2A4C2A3C2A2C3E529952AFFE494004B
:10007900AB26AA27A9288F82F5831202902408F8B3
:10008900E6F5807F647E001203A4E4F58005290269
:02009900001253
:01009B002242
:0300000002009C5F
:0C009C00787FE4F6D8FD75812B0200E3AC
:10029000BB010CE58229F582E5833AF583E0225023
:1002A00006E92582F8E622BBFE06E92582F8E2226D
:0D02B000E58229F582E5833AF583E4932287
:1000A800020128E493A3F8E493A34003F68001F245
:1000B80008DFF48029E493A3F85407240CC8C33359
:1000C800C4540F4420C8834004F456800146F6DF28
:1000D800E4800B010204081020408090032AE47E8B
:1000E800019360BCA3FF543F30E509541FFEE4931D
:1000F800A360010ECF54C025E060A840B8E493A3E4
:10010800FAE493A3F8E493A3C8C582C8CAC583CA0E
:10011800F0A3C8C582C8CAC583CADFE9DEE780BEC6
:01034A0000B2
:00000001FF
