:0E014B00D2A0E4FF12008FBF01F8B2A080F432
:0B015900EF1FAC0670011E4C70F62278
:10012900AC06AD07D3ED9400EC940040147A007B43
:100139006EEB1B70011AEB4A70F7ED1D70E61C801F
:01014900E3D2
:01014A002292
:030164000108018E
:10008F00EF600375080130B10930B00630B20320BC
:10009F00B3047F0180027F008F08EF60227F0A7E0A
:1000AF0000120129E4F50820B1037F012220B003DB
:1000BF007F022220B2037F032220B3127F0422305B
:1000CF00B10C30B00930B20630B3037508017F00B0
:0100DF0022FE
:1000E000E4F509F509AF097401A807088002C333D4
:1000F000D8FCF4F5A07FF47E011201290509E50979
:10010000C3940840E0E4F509AF097440A8070880EB
:1001100002C313D8FCF4F5A07FF47E011201290577
:0801200009E509C3940640E063
:0101280022B4
:03000000020003F8
:0C000300787FE4F6D8FD75810902004A00
:10000F0002014BE493A3F8E493A34003F68001F2BB
:10001F0008DFF48029E493A3F85407240CC8C333F2
:10002F00C4540F4420C8834004F456800146F6DFC1
:10003F00E4800B0102040810204080900164E47EEC
:10004F00019360BCA3FF543F30E509541FFEE493B6
:10005F00A360010ECF54C025E060A840B8E493A37D
:10006F00FAE493A3F8E493A3C8C582C8CAC583CAA8
:10007F00F0A3C8C582C8CAC583CADFE9DEE780BE60
:010167000097
:00000001FF
