:0800850075A0FE12000380FBD0
:0B007A00EF1FAC0670011E4C70F62258
:10004C00AC06AD07D3ED9400EC940040147A007B21
:10005C006EEB1B70011AEB4A70F7ED1D70E61C80FD
:01006C00E3B0
:01006D002270
:10000300E4F508F508AF087401A807088002C333B4
:10001300D8FCF4F5A07FF47E0112004C0508E50836
:10002300C3940840E0E4F508AF087440A8070880CB
:1000330002C313D8FCF4F5A07FF47E0112004C0533
:0800430008E508C3940640E043
:01004B002292
:0300000002006E8D
:0C006E00787FE4F6D8FD7581080200855B
:00000001FF
