:100121001202811202A3E531C4540F2408F8E6F546
:1001310036E531540F2408F8E6F537753840E530D7
:10014100C4540F2408F8E6F539E530540F2408F8B3
:10015100E6F53A753B40E52FC4540F2408F8E6F55F
:100161003CE52F540F2408F8E6F53D7B007A007931
:08017100367D0112000380AB92
:0B02B900EF1FAC0670011E4C70F62217
:10025F00AC06AD07D3ED9400EC940040147A007B0C
:10026F006EEB1B70011AEB4A70F7ED1D70E61C80E8
:01027F00E39B
:01028000225B
:1001C40011083F065B4F666D7D077F6F777C395E54
:0D01D40079710008196D5B3F40064F06660B
:060003008B3E8A3F89409C
:10000900E4F541ED14F542F541E541C39408507B0F
:10001900E541B40800504D900027F82828730200E4
:100029003F02004302004702004B02004F02005703
:1000390002005F020067D2A4800ED2A48012D2A46B
:100049008016D2A4801AC2A4D2A3D2A28016C2A4B6
:10005900D2A3C2A2800EC2A4C2A3D2A28006C2A405
:10006900C2A3C2A2C3E5419542FFE49400AB3EAAF4
:100079003FA9408F82F583120232F5807F647E00AA
:0B0089001202B9E4F5800541020012EC
:010094002249
:1001E100072881838587898B8D0721808284868872
:0B01F1008A8C072F30112130090522F5
:1001FD00E4FEC2B500C2B600D2B500EF1392B4EF63
:10020D00C313FFD2B600C2B6000EBE08EEE4FEED7B
:10021D001392B4EDC313FDD2B600C2B6000EBE08E4
:04022D00EEC2B50068
:0102310022AA
:10017900E4FEFDFBC2B500C2B600D2B500EF139292
:10018900B4EFC313FFD2B600C2B6000EBE08EEE448
:10019900FEA2B4E433FDC43333335480FFEBC313FD
:1001A9004FFBD2B600C2B6000EBE08E5C2B500D2FA
:0A01B900B600C2B400D2B400AF03D8
:0101C3002219
:10028100E4FCFD7F8E1201FD74212CF8E6FF742F32
:100291002CF8E6FD1201FD0CBC07ED7D807F8E027E
:0202A10001FD5D
:1002A300E4FC74282CF8E6FF120179742F2CF8A6CD
:0502B300070CBC07ED83
:0102B8002223
:0300000002009566
:0C009500787FE4F6D8FD7581420200DCA3
:10023200BB010CE58229F582E5833AF583E0225081
:1002420006E92582F8E622BBFE06E92582F8E222CB
:0D025200E58229F582E5833AF583E49322E5
:1000A100020121E493A3F8E493A34003F68001F253
:1000B10008DFF48029E493A3F85407240CC8C33360
:1000C100C4540F4420C8834004F456800146F6DF2F
:1000D100E4800B01020408102040809001C4E47EFA
:1000E100019360BCA3FF543F30E509541FFEE49324
:1000F100A360010ECF54C025E060A840B8E493A3EB
:10010100FAE493A3F8E493A3C8C582C8CAC583CA15
:10011100F0A3C8C582C8CAC583CADFE9DEE780BECD
:0101FC000002
:00000001FF
