:03040E00000000EB
:1003790078267C007D007BFF7A04790E7E007F035E
:10038900120208120405E530C4540F2408F8E6F5F2
:1003990026E530540F2408F8E6F5277528767B0002
:0B03A9007A0079267D0612025B80DBE3
:0B03FA00EF1FAC0670011E4C70F622D5
:1003D800AC06AD07D3ED9400EC940040147A007B92
:1003E8006EEB1B70011AEB4A70F7ED1D70E61C806E
:0103F800E321
:0103F90022E1
:1003B40011083F065B4F666D7D077F6F777C395E62
:0D03C40079710008196D5B3F40064F066619
:06025B008B298A2A892B81
:10026100E4F52CED14F52DF52CE52CC39408507B09
:10027100E52CB40800504D90027FF8282873020243
:100281009702029B02029F0202A30202A70202AF8F
:100291000202B70202BFD2A4800ED2A48012D2A45D
:1002A1008016D2A4801AC2A4D2A3D2A28016C2A45C
:1002B100D2A3C2A2800EC2A4C2A3D2A28006C2A4AB
:1002C100C2A3C2A2C3E52C952DFFE49400AB29AAD9
:1002D1002AA92B8F82F58312022EF5807F647E007E
:0B02E1001203FAE4F580052C02026A0B
:0102EC0022EF
:0603D100042E00000000F4
:09040500D288D2A8D2AFD2B222F3
:03000300020006F2
:10000600C0E0C0F0C083C082C0D075D000C000C0C0
:0D00160001C002C003C004C005C006C00741
:1000230075210075220075230075240075250030A5
:10003300B20302011D7522037523E820B21EE523D6
:10004300452260187F017E001203FAE52315237011
:10005300021522E523452270E202011D20B20302AC
:1000630001057522017523F430B21EE52345226094
:10007300187F017E001203FAE5231523700215226F
:10008300E523452270E202011D75240075250075E4
:10009300220275235820B21DE523452260177F01F4
:1000A3007E001203FAE523152370021522E523458A
:1000B3002270E2806575220075231430B2127F0A24
:1000C3007E001203FA0521E521D3941440ED804A02
:1000D300742E2524F8C000E6C313D000F6E521C32F
:1000E30094084009742E2524F8E64480F67521000F
:1000F3000525E525C3940840960524E524C3940407
:10010300408AE531F465306011752400742E25248E
:0A011300F876000524E524B404F298
:10011D00D007D006D005D004D003D002D001D00036
:0B012D00D0D0D082D083D0F0D0E032E0
:030000000202ED0C
:0C02ED00787FE4F6D8FD758131020334FF
:10013800E709F608DFFA8046E709F208DFFA803EA9
:1001480088828C83E709F0A3DFFA8032E309F60896
:10015800DFFA8078E309F208DFFA807088828C83FE
:10016800E309F0A3DFFA806489828A83E0A3F608B2
:10017800DFFA805889828A83E0A3F208DFFA804C8C
:1001880080D280FA80C680D4806980F28033801063
:1001980080A680EA809A80A880DA80E280CA8033CC
:1001A80089828A83ECFAE493A3C8C582C8CCC58344
:1001B800CCF0A3C8C582C8CCC583CCDFE9DEE78014
:1001C8000D89828A83E493A3F608DFF9ECFAA9F093
:1001D800EDFB2289828A83ECFAE0A3C8C582C8CCE9
:1001E800C583CCF0A3C8C582C8CCC583CCDFEADE02
:1001F800E880DB89828A83E493A3F208DFF980CC64
:1002080088F0EF60010E4E60C388F0ED2402B4045C
:100218000050B9F582EB2402B4040050AF23234503
:060228008223900188739F
:10022E00BB010CE58229F582E5833AF583E0225085
:10023E0006E92582F8E622BBFE06E92582F8E222CF
:0D024E00E58229F582E5833AF583E49322E9
:1002F900020379E493A3F8E493A34003F68001F29F
:1003090008DFF48029E493A3F85407240CC8C33305
:10031900C4540F4420C8834004F456800146F6DFD4
:10032900E4800B01020408102040809003B4E47EAD
:10033900019360BCA3FF543F30E509541FFEE493C9
:10034900A360010ECF54C025E060A840B8E493A390
:10035900FAE493A3F8E493A3C8C582C8CAC583CABB
:10036900F0A3C8C582C8CAC583CADFE9DEE780BE73
:0103D7000025
:00000001FF
