:08014800E4F5801200D680FBF3
:0B013D00EF1FAC0670011E4C70F62294
:10010D00AC06AD07D3ED9400EC940040147A007B5F
:10011D006EEB1B70011AEB4A70F7ED1D70E61C803B
:01012D00E3EE
:01012E0022AE
:0D012F0008090102040810204080010800AA
:07008F0074092508F8E6FFE3
:020096008F11C8
:10009800E4F512F512E511C4131313540124FF9269
:1000A800B4E51125E0F511C2B67F017E0012013DCD
:1000B800D2B67F017E0012013D0512E512C39408F5
:0D00C80040D3C2B57F017E0012013DD2B5CC
:0100D5002208
:1000D600E4F508E4FF12009612008F7FF47E011209
:1000E600010D0508E508C3940840E8750806E4FF15
:1000F60012009612008F7FF47E0112010D1508E59D
:0601060008D3940050E84C
:01010C0022D0
:03000000020003F8
:0C000300787FE4F6D8FD75811202004AF7
:10000F00020148E493A3F8E493A34003F68001F2BE
:10001F0008DFF48029E493A3F85407240CC8C333F2
:10002F00C4540F4420C8834004F456800146F6DFC1
:10003F00E4800B010204081020408090012FE47E21
:10004F00019360BCA3FF543F30E509541FFEE493B6
:10005F00A360010ECF54C025E060A840B8E493A37D
:10006F00FAE493A3F8E493A3C8C582C8CAC583CAA8
:10007F00F0A3C8C582C8CAC583CADFE9DEE780BE60
:01013C0000C2
:00000001FF
