:0E014600D2A0E4FF12008FBF01F8B2A080F437
:0B015400EF1FAC0670011E4C70F6227D
:10012400AC06AD07D3ED9400EC940040147A007B48
:100134006EEB1B70011AEB4A70F7ED1D70E61C8024
:01014400E3D7
:010145002297
:03015F0001080193
:10008F00EF6003750801E5086401702E30B1093087
:10009F00B00630B20320B3227F0A7E00120124E49F
:1000AF00F50820B1037F012220B0037F022220B286
:1000BF00037F032220B3127F042230B10C30B0092A
:0B00CF0030B20630B3037508017F005B
:0100DA002203
:1000DB00E4F509F509AF097401A807088002C333D9
:1000EB00D8FCF4F5A07FF47E011201240509E50983
:1000FB00C3940840E0E4F509AF097440A8070880F1
:10010B0002C313D8FCF4F5A07FF47E011201240581
:08011B0009E509C3940640E068
:0101230022B9
:03000000020003F8
:0C000300787FE4F6D8FD75810902004A00
:10000F00020146E493A3F8E493A34003F68001F2C0
:10001F0008DFF48029E493A3F85407240CC8C333F2
:10002F00C4540F4420C8834004F456800146F6DFC1
:10003F00E4800B010204081020408090015FE47EF1
:10004F00019360BCA3FF543F30E509541FFEE493B6
:10005F00A360010ECF54C025E060A840B8E493A37D
:10006F00FAE493A3F8E493A3C8C582C8CAC583CAA8
:10007F00F0A3C8C582C8CAC583CADFE9DEE780BE60
:01016200009C
:00000001FF
