:1000DD0054686973206973206120746573742100FD
:0F00ED004D616465206279204C4F6C697461002D
:1000FC0012014E7BFF7A0079DDE4FDFF1200037BD9
:0E010C00FF7A0079ED7D01E4FF12000380FE12
:0B016E00EF1FAC0670011E4C70F62263
:1000BB00AC06AD07D3ED9400EC940040147A007BB2
:1000CB006EEB1B70011AEB4A70F7ED1D70E61C808E
:0100DB00E341
:0100DC002201
:10011A00C2A6C2A5C2A78F807F017E001200BBD2F1
:0B012A00A77F017E001200BBC2A722CD
:0A009600AB09AA0AA90B120135FFFD
:1000A000D2A6C2A5C2A78F807F017E001200BBD25C
:0B00B000A77F017E001200BBC2A72248
:10014E007F3812011A7F0C12011A7F0612011A7FD4
:04015E000102011A7F
:050179007F0102011AE4
:080003008F088B098A0A890BA2
:10000B00E4F50CEDD394014003020095E508940F41
:10001B005078EDC394015039AB09AA0AA90B120110
:10002B00356067C374109508FFE50CC39FE50C5052
:10003B0006248025088004250824B0FF12011A121B
:10004B0000967401250BF50BE4350AF50A050C80B7
:10005B00C7AB09AA0AA90B120135602EC374109500
:10006B0008FFE50CC39FE50C500624C0250880044F
:10007B0025082470FF12011A1200967401250BF546
:0A008B000BE4350AF50A050C80C7E6
:010095002248
:0300000002016298
:0C016200787FE4F6D8FD75810C0200FCEB
:10013500BB010689828A83E0225002E722BBFE02C8
:09014500E32289828A83E49322FB
:00000001FF
