:0401470002080000AA
:10012C00438901758CFC758A18D2A9D2AFD28C2266
:0500030012012C80FE3B
:03000B000200E30D
:0400E300C0E0C0D0E9
:1000E700758CFC758A180509E50970020508B4E8DE
:0E00F7000DE508B40308750800750900B2A0F5
:05010500D0D0D0E03273
:0B013C00EF1FAC0670011E4C70F62295
:10010A00AC06AD07D3ED9400EC940040147A007B62
:10011A006EEB1B70011AEB4A70F7ED1D70E61C803E
:01012A00E3F1
:01012B0022B1
:10009A00E4F50AF50AAF0A7401A807088002C33317
:1000AA00D8FCF4F5A07FF47E0112010A050AE50ADC
:1000BA00C3940840E0E4F50AAF0A7440A807088030
:1000CA0002C313D8FCF4F5A07FF47E0112010A05DD
:0800DA000AE50AC3940640E0A8
:0100E20022FB
:0300000002000EED
:0C000E00787FE4F6D8FD75810A020055E9
:10001A00020003E493A3F8E493A34003F68001F2F9
:10002A0008DFF48029E493A3F85407240CC8C333E7
:10003A00C4540F4420C8834004F456800146F6DFB6
:10004A00E4800B0102040810204080900147E47EFE
:10005A00019360BCA3FF543F30E509541FFEE493AB
:10006A00A360010ECF54C025E060A840B8E493A372
:10007A00FAE493A3F8E493A3C8C582C8CAC583CA9D
:10008A00F0A3C8C582C8CAC583CADFE9DEE780BE55
:01014B0000B3
:00000001FF
