:050732000000000000C2
:10038400E4F521F522F52378247C00FD7BFF7A0730
:100394007932FE7F0512029812072B0521E521759B
:1003A400F03284E5F0701412056FE4FBFA792078DA
:1003B400411200031201478E228F23C3E522648079
:1003C40094805010C3E49523F523E49522F5227517
:1003D40024408003E4F524AE22AF237C037DE8129D
:1003E40002EB74082FF8E6F525AE22AF237C037DDB
:1003F400E81202EBAA04AB057D647C00AF03AE02F5
:100404001202EB74082FF8E6F5267D647C00AF0336
:10041400AE021202EBAA04AB057D0A7C00AF03AE68
:10042400021202EB74082FF8E64480F5277D0A7C5B
:1004340000AF03AE021202EB74082DF8E6F5287B38
:0D044400007A0079247D0412045102039F08
:0B072000EF1FAC0670011E4C70F622AB
:10069E00AC06AD07D3ED9400EC940040147A007BC9
:1006AE006EEB1B70011AEB4A70F7ED1D70E61C80A5
:0106BE00E358
:0106BF002218
:1006E00011083F065B4F666D7D077F6F777C395E33
:0D06F00079710008196D5B3F40064F0666EA
:060451008B298A2A892B89
:10045700E4F52CED14F52DF52CE52CC39408507B11
:10046700E52CB40800504D900475F8282873020451
:100477008D02049102049502049902049D0204A5C9
:100487000204AD0204B5D2A4800ED2A48012D2A475
:100497008016D2A4801AC2A4D2A3D2A28016C2A464
:1004A700D2A3C2A2800EC2A4C2A3D2A28006C2A4B3
:1004B700C2A3C2A2C3E52C952DFFE49400AB29AAE1
:1004C7002AA92B8F82F5831202BEF5807F647E00F6
:0B04D700120720E4F580052C020460F1
:0104E20022F7
:1006FE00C2B77F4B7E00120720D2B77F027E000268
:02070E000720C2
:1005F200E4F53030B712E530C39414500B05307F68
:10060200017E0012072080EBE530C3941440037F83
:100612000122E4F53020B712E530C39414500B05E3
:10062200307F017E0012072080EBE530C394144036
:06063200037F01227F009E
:01063800229F
:1006C000E4F532C2B70000D2B7000030B70575328A
:0F06D000018003E4F5327F057E00120720AF3270
:0106DF0022F8
:10067800E4F530F531FFF5301206C0EFC4333333FB
:100688005480FEE531C3134EF5310530E530C3948F
:050698000840E5AF3150
:01069D00223A
:020639008F3000
:10063B00E4F531F532F531E5305401F532E530C3EF
:10064B0013F530E532600FC2B70000D2B77F067EDC
:10065B0000120720800DC2B77F067E00120720D242
:0C066B00B700000531E531C3940840CB16
:010677002260
:100710001206FE1205F27FCC1206397F440206391A
:07072B001206FE1205F22286
:10056F00E4F52CF52BF52AF529FFF52DF52EF52FB2
:10057F001207101206FE1205F27FCC1206397FBE4B
:10058F001206391206788F2D120678EFFE7C00E4E2
:10059F00252DF52FEC3EF52E54F8FEEEB4F821E59F
:1005AF002FF4FFE52EF4FEEF2401F52FE43EF52E98
:1005BF00FCAD2FE412010EE4FBFA798078BD800FB9
:1005CF00AC2EAD2FE412010EE4FBFA7980783D12C8
:1005DF0000038F2C8E2B8D2A8C29AF2CAE2BAD2A9E
:0205EF00AC2935
:0105F10022E7
:10000300EC4D6011E8497017ED33EC3304600DE4F7
:10001300FCFFFEFD22E933E8330470F80201B3125A
:10002300017E58046009E4CC24815006285009025B
:1000330001BD2840030201BAC0E0EB4A7044B98015
:1000430006D0E0FB0201A9EF4E701CBD8008EBFF58
:10005300EAFEE9FD80EBE98DF0A4FEE5F00200EC99
:10006300E9CDF9EAFEEBFFEF89F0A4FCE5F0CE89D8
:10007300F0A42EFFE435F0CD89F0A42DFEE435F095
:100083008067EF4E7005BD80D780C3EF8BF0A4ACC3
:10009300F0EE8BF0A42CFCE435F0F8EF8AF0A42CFE
:1000A300E5F038FCE433CB8DF0A42CFCE5F03BF811
:1000B300EE8AF0A42CFCE5F038F8E433CF89F0A401
:1000C3002CFCE5F038CF3400CE89F0A42FFFE5F007
:1000D3003EFEE433C98DF0A42EFEE5F039CD8AF05F
:1000E300A42FFFE5F03EFEE43DFD33D0E0FB5007D7
:1000F3000BBB000F0201BDEC2CFCEF33FFEE33FE14
:06010300ED33FD02019541
:1001090075F020800E75F010800575F0087D007E71
:10011900007F003392D530D503120321EC33401010
:10012900EF33FFEE33FEED33FDEC33FCD5F0ED227A
:0E013900E5F0247EA2D513CC92E7CDCEFF22B6
:10014700EDD2E7CD33EC3392D524814006E4FFFEB0
:10015700FDFC22FCE4CFCECDCC24E0501174FF800F
:10016700EDC3CC13CCCD13CDCE13CECF13CF0470AC
:07017700F030D5DE02032188
:10017E00E9D2E7C933E833F892D5EDD2E7CD33ECC7
:07018E0033FC5002B2D52240
:10019500EC30E7100FBF000C0EBE00080DBD0004CB
:1001A5000BEB6014A2D5EB13FCED92E7FD2274FF77
:1001B500FCFDFEFF22E480F8A2D574FF13FC7D80D0
:0301C500E480EFE4
:030000000204E314
:0C04E300787FE4F6D8FD75813202052A0E
:1001C800E709F608DFFA8046E709F208DFFA803E19
:1001D80088828C83E709F0A3DFFA8032E309F60806
:1001E800DFFA8078E309F208DFFA807088828C836E
:1001F800E309F0A3DFFA806489828A83E0A3F60822
:10020800DFFA805889828A83E0A3F208DFFA804CFB
:1002180080D280FA80C680D4806980F280338010D2
:1002280080A680EA809A80A880DA80E280CA80333B
:1002380089828A83ECFAE493A3C8C582C8CCC583B3
:10024800CCF0A3C8C582C8CCC583CCDFE9DEE78083
:100258000D89828A83E493A3F608DFF9ECFAA9F002
:10026800EDFB2289828A83ECFAE0A3C8C582C8CC58
:10027800C583CCF0A3C8C582C8CCC583CCDFEADE71
:10028800E880DB89828A83E493A3F208DFF980CCD3
:1002980088F0EF60010E4E60C388F0ED2402B404CC
:1002A8000050B9F582EB2402B4040050AF23234573
:0602B8008223900218737E
:1002BE00BB010CE58229F582E5833AF583E02250F5
:1002CE0006E92582F8E622BBFE06E92582F8E2223F
:0D02DE00E58229F582E5833AF583E4932259
:1002EB00C2D5EC30E709B2D5E4C39DFDE49CFCEE2E
:1002FB0030E715B2D5E4C39FFFE49EFE12032FC374
:10030B00E49DFDE49CFC800312032F30D507C3E46E
:06031B009FFFE49EFE229C
:0E032100C3E49FFFE49EFEE49DFDE49CFC22ED
:1004EF00020384E493A3F8E493A34003F68001F29C
:1004FF0008DFF48029E493A3F85407240CC8C3330E
:10050F00C4540F4420C8834004F456800146F6DFDC
:10051F00E4800B01020408102040809006E0E47E86
:10052F00019360BCA3FF543F30E509541FFEE493D1
:10053F00A360010ECF54C025E060A840B8E493A398
:10054F00FAE493A3F8E493A3C8C582C8CAC583CAC3
:10055F00F0A3C8C582C8CAC583CADFE9DEE780BE7B
:0106FD0000FC
:10032F00BC000BBE0029EF8DF084FFADF022E4CCB2
:10033F00F875F008EF2FFFEE33FEEC33FCEE9DEC7B
:10034F00984005FCEE9DFE0FD5F0E9E4CEFD22EDC1
:10035F00F8F5F0EE8420D21CFEADF075F008EF2F0B
:10036F00FFED33FD4007985006D5F0F222C398FDFC
:05037F000FD5F0EA2299
:00000001FF
