:07019D00D288D2A8D2AF22E4
:0501A40012019D80FE28
:0300030002012CCB
:10012C00C0E0C0F0C083C082C0D075D000C000C099
:10013C0001C002C003C004C005C006C0077FE87E32
:10014C000312019220B202B2A0D007D006D005D083
:10015C0004D003D002D001D000D0D0D082D083D034
:04016C00F0D0E032BD
:0B019200EF1FAC0670011E4C70F6223F
:10017000AC06AD07D3ED9400EC940040147A007BFC
:100180006EEB1B70011AEB4A70F7ED1D70E61C80D8
:01019000E38B
:01019100224B
:0301A90001080149
:10009200EF600375080130B10930B00630B20320B9
:1000A200B3047F0180027F008F08EF60227F0A7E07
:1000B20000120170E4F50820B1037F012220B00391
:1000C2007F022220B2037F032220B3127F04223058
:1000D200B10C30B00930B20630B3037508017F00AD
:0100E20022FB
:1000E300E4F509F509AF097401A807088002C333D1
:1000F300D8FCF4F5A07FF47E011201700509E5092F
:10010300C3940840E0E4F509AF097440A8070880E8
:1001130002C313D8FCF4F5A07FF47E01120170052D
:0801230009E509C3940640E060
:01012B0022B1
:03000000020006F5
:0C000600787FE4F6D8FD75810902004DFA
:100012000201A4E493A3F8E493A34003F68001F25F
:1000220008DFF48029E493A3F85407240CC8C333EF
:10003200C4540F4420C8834004F456800146F6DFBE
:10004200E4800B01020408102040809001A9E47EA4
:10005200019360BCA3FF543F30E509541FFEE493B3
:10006200A360010ECF54C025E060A840B8E493A37A
:10007200FAE493A3F8E493A3C8C582C8CAC583CAA5
:10008200F0A3C8C582C8CAC583CADFE9DEE780BE5D
:0101AC000052
:00000001FF
