:1000FA00E4F508F509750A01F50BE4FF1201568FBC
:10010A0008E508B4010EE50970047F0180027F004A
:10011A008F09801EE508B4020BE50AD39401401248
:10012A00150A800EE508B40309E50AC394055002CE
:10013A00050AAF0B050BAD0912008FE50BB40803D6
:0C014A00E4F50BAF0A7E001201A780AEA6
:0B01C900EF1FAC0670011E4C70F62208
:1001A700AC06AD07D3ED9400EC940040147A007BC5
:1001B7006EEB1B70011AEB4A70F7ED1D70E61C80A1
:0101C700E354
:0101C8002214
:10008F00AE07ED7005C374079FFEEEB40800505223
:10009F009000A6F82828730200BE0200C20200C614
:1000AF000200CC0200D20200DB0200E40200E8D220
:1000BF00908031D2908002C290D2918029C290D28A
:1000CF00918004C290C291D292C29322C290C291E7
:1000DF00D292D29322C2908002D290C291C292D277
:0A00EF009322C290C291C292C29304
:0100F90022E4
:0301D400010C011A
:10015600EF6003750C0130B10930B00630B20320F0
:10016600B3047F0180027F008F0CEF60227F0A7E3E
:10017600001201A7E4F50C20B1037F012220B00391
:100186007F022220B2037F032220B3127F04223093
:10019600B10C30B00930B20630B303750C017F00E4
:0101A6002236
:03000000020003F8
:0C000300787FE4F6D8FD75810C02004AFD
:10000F000200FAE493A3F8E493A34003F68001F20D
:10001F0008DFF48029E493A3F85407240CC8C333F2
:10002F00C4540F4420C8834004F456800146F6DFC1
:10003F00E4800B01020408102040809001D4E47E7C
:10004F00019360BCA3FF543F30E509541FFEE493B6
:10005F00A360010ECF54C025E060A840B8E493A37D
:10006F00FAE493A3F8E493A3C8C582C8CAC583CAA8
:10007F00F0A3C8C582C8CAC583CADFE9DEE780BE60
:0101D7000027
:00000001FF
