:1002A900E4FF1201F2EF60FA2407F8E6F58080F224
:0B02B900EF1FAC0670011E4C70F62217
:10026600AC06AD07D3ED9400EC940040147A007B05
:100276006EEB1B70011AEB4A70F7ED1D70E61C80E1
:01028600E394
:010287002254
:0302880001220050
:10000300E4F5217590F7E59064F7602C7F0A7E0094
:10001300120266AF90EF2449601124E0601224F0CD
:10002300601324707012752101800D7521058008FD
:10003300752109800375210DE590B4F7FB7590FBDD
:10004300E59064FB602C7F0A7E00120266AF90EF9E
:100053002445601124E0601224F0601324707012B0
:10006300752102800D752106800875210A800375AC
:10007300210EE590B4FBFB7590FDE59064FD602CCB
:100083007F0A7E00120266AF90EF2443601124E0E2
:10009300601224F0601324707012752103800D75B3
:1000A3002107800875210B800375210FE590B4FDAE
:1000B300FB7590FEE59064FE602C7F0A7E001202C1
:1000C30066AF90EF2442601124E0601224F06013C5
:1000D30024707012752104800D7521088008752124
:0D00E3000C8003752110E590B4FEFBAF21E9
:0100F00022ED
:1001F20075900FE590640F60657F0A7E00120266BB
:10020200E590640F605B75900FAF90EF24F560107E
:1002120024FE601114601324077012752201800DF0
:10022200752202800875220380037522047590F0FE
:10023200AF90EF2450601124E0601124F06011248B
:10024200707013852222800E740480067408800266
:10025200740C2522F522E59064F0600580F8E4F53F
:0302620022AF22A6
:010265002276
:10028B0011083F065B4F666D7D077F6F777C395E8C
:0D029B0079710008196D5B3F40064F066643
:10017D00E4F523F523E523B40800504D900190F8E4
:10018D002828730201A80201AC0201B00201B402D9
:10019D0001B80201C00201C80201D0D2A4800ED262
:1001AD00A48012D2A48016D2A4801AC2A4D2A3D243
:1001BD00A28016C2A4D2A3C2A2800EC2A4C2A3D290
:1001CD00A28006C2A4C2A3C2A274192523F8E6F523
:1001DD00807F647E001202B9E4F5800523E523C318
:0401ED0094084091A1
:0101F10022EB
:030000000200F10A
:0C00F100787FE4F6D8FD75812302013809
:1000FD000202A9E493A3F8E493A34003F68001F26E
:10010D0008DFF48029E493A3F85407240CC8C33303
:10011D00C4540F4420C8834004F456800146F6DFD2
:10012D00E4800B0102040810204080900288E47ED8
:10013D00019360BCA3FF543F30E509541FFEE493C7
:10014D00A360010ECF54C025E060A840B8E493A38E
:10015D00FAE493A3F8E493A3C8C582C8CAC583CAB9
:10016D00F0A3C8C582C8CAC583CADFE9DEE780BE71
:0102A8000055
:00000001FF
