:10005C00546869732069732061207465737421007E
:10006C004D616465206279204C4F6C69746100CAE3
:10007C00B9D3C3C6D5D6D04132BFAAB7A200D7D602
:0E008C00B7FBCABEDDCFD4CABEB3C9B9A60049
:10009A001201437BFF7A00795CE4FDFF1200037BC7
:1000AA00FF7A00796C7D01E4FF1200037BFF7A007E
:1000BA00797B7D02E4FF1200037BFF7A00798A7D57
:0800CA0003E4FF12000380FEB5
:0B016500EF1FAC0670011E4C70F6226C
:1000D200AC06AD07D3ED9400EC940040147A007B9B
:1000E2006EEB1B70011AEB4A70F7ED1D70E61C8077
:0100F200E32A
:0100F30022EA
:1000F400C2A6C2A5C2A78F807F017E001200D2D201
:0B010400A77F017E001200D2C2A722DC
:10010F00D2A6C2A5C2A78F807F017E001200D2D2D5
:0B011F00A77F017E001200D2C2A722C1
:10014300D2B27F301200F47F0C1200F47F0612004B
:06015300F47F010200F43C
:050170007F010200F414
:100003008B088A09890AEDD394005002E4FDEDD3ED
:10001300940340027D0353070FED14600F14601126
:1000230014601324037012430780800D43079080EC
:100033000843078880034307981200F4AB08AA0912
:10004300A90A12012AFF601012010F7401250AF593
:090053000AE43509F50980E422F4
:03000000020159A1
:0C015900787FE4F6D8FD75810A02009A58
:10012A00BB010689828A83E0225002E722BBFE02D3
:09013A00E32289828A83E4932206
:00000001FF
